{
  "_format": "hh-sol-artifact-1",
  "contractName": "InteractionPortal",
  "sourceName": "contracts/WavePortal.sol",
  "abi": [
    {
      "inputs": [],
      "stateMutability": "payable",
      "type": "constructor"
    },
    {
      "anonymous": false,
      "inputs": [
        {
          "indexed": true,
          "internalType": "address",
          "name": "from",
          "type": "address"
        },
        {
          "indexed": false,
          "internalType": "uint256",
          "name": "timestamp",
          "type": "uint256"
        },
        {
          "indexed": false,
          "internalType": "string",
          "name": "message",
          "type": "string"
        },
        {
          "indexed": false,
          "internalType": "string",
          "name": "typeofinteraction",
          "type": "string"
        }
      ],
      "name": "NewInteraction",
      "type": "event"
    },
    {
      "inputs": [
        {
          "internalType": "string",
          "name": "_message",
          "type": "string"
        }
      ],
      "name": "dosomething",
      "outputs": [],
      "stateMutability": "nonpayable",
      "type": "function"
    },
    {
      "inputs": [],
      "name": "getAllInteractions",
      "outputs": [
        {
          "components": [
            {
              "internalType": "address",
              "name": "interacter",
              "type": "address"
            },
            {
              "internalType": "string",
              "name": "message",
              "type": "string"
            },
            {
              "internalType": "uint256",
              "name": "timestamp",
              "type": "uint256"
            },
            {
              "internalType": "string",
              "name": "typeofinteraction",
              "type": "string"
            }
          ],
          "internalType": "struct InteractionPortal.Interaction[]",
          "name": "",
          "type": "tuple[]"
        }
      ],
      "stateMutability": "view",
      "type": "function"
    },
    {
      "inputs": [],
      "name": "getEtherBalance",
      "outputs": [
        {
          "internalType": "uint256",
          "name": "",
          "type": "uint256"
        }
      ],
      "stateMutability": "view",
      "type": "function"
    },
    {
      "inputs": [],
      "name": "getSeed",
      "outputs": [
        {
          "internalType": "uint256",
          "name": "",
          "type": "uint256"
        }
      ],
      "stateMutability": "view",
      "type": "function"
    },
    {
      "inputs": [],
      "name": "getTotal",
      "outputs": [
        {
          "internalType": "uint256",
          "name": "",
          "type": "uint256"
        }
      ],
      "stateMutability": "view",
      "type": "function"
    },
    {
      "inputs": [],
      "name": "getTotalBows",
      "outputs": [
        {
          "internalType": "uint256",
          "name": "",
          "type": "uint256"
        }
      ],
      "stateMutability": "view",
      "type": "function"
    },
    {
      "inputs": [],
      "name": "getTotalFistbumps",
      "outputs": [
        {
          "internalType": "uint256",
          "name": "",
          "type": "uint256"
        }
      ],
      "stateMutability": "view",
      "type": "function"
    },
    {
      "inputs": [],
      "name": "getTotalHandshakes",
      "outputs": [
        {
          "internalType": "uint256",
          "name": "",
          "type": "uint256"
        }
      ],
      "stateMutability": "view",
      "type": "function"
    },
    {
      "inputs": [],
      "name": "getTotalHighfives",
      "outputs": [
        {
          "internalType": "uint256",
          "name": "",
          "type": "uint256"
        }
      ],
      "stateMutability": "view",
      "type": "function"
    },
    {
      "inputs": [],
      "name": "getTotalWaves",
      "outputs": [
        {
          "internalType": "uint256",
          "name": "",
          "type": "uint256"
        }
      ],
      "stateMutability": "view",
      "type": "function"
    },
    {
      "inputs": [
        {
          "internalType": "address",
          "name": "",
          "type": "address"
        }
      ],
      "name": "lastInteractedWith",
      "outputs": [
        {
          "internalType": "uint256",
          "name": "",
          "type": "uint256"
        }
      ],
      "stateMutability": "view",
      "type": "function"
    }
  ],
  "bytecode": "0x608060405260326006553373ffffffffffffffffffffffffffffffffffffffff16316008556706f05b59d3b20000600955670de0b6b3a7640000600a55671bc16d674ec80000600b55674563918244f40000600c55678ac7230489e80000600d55600954600e55600a54600f55600b54601055600c54601155600d54601255620000ad6040518060a001604052806072815260200162001d5160729139620000d560201b62000d231760201c565b60644442620000bd919062000222565b620000c99190620002bf565b60078190555062000366565b6200017581604051602401620000ec9190620001e2565b6040516020818303038152906040527f41304fac000000000000000000000000000000000000000000000000000000007bffffffffffffffffffffffffffffffffffffffffffffffffffffffff19166020820180517bffffffffffffffffffffffffffffffffffffffffffffffffffffffff83818316178352505050506200017860201b60201c565b50565b60008151905060006a636f6e736f6c652e6c6f679050602083016000808483855afa5050505050565b6000620001ae8262000206565b620001ba818562000211565b9350620001cc81856020860162000289565b620001d78162000355565b840191505092915050565b60006020820190508181036000830152620001fe8184620001a1565b905092915050565b600081519050919050565b600082825260208201905092915050565b60006200022f826200027f565b91506200023c836200027f565b9250827fffffffffffffffffffffffffffffffffffffffffffffffffffffffffffffffff03821115620002745762000273620002f7565b5b828201905092915050565b6000819050919050565b60005b83811015620002a95780820151818401526020810190506200028c565b83811115620002b9576000848401525b50505050565b6000620002cc826200027f565b9150620002d9836200027f565b925082620002ec57620002eb62000326565b5b828206905092915050565b7f4e487b7100000000000000000000000000000000000000000000000000000000600052601160045260246000fd5b7f4e487b7100000000000000000000000000000000000000000000000000000000600052601260045260246000fd5b6000601f19601f8301169050919050565b6119db80620003766000396000f3fe608060405234801561001057600080fd5b50600436106100a95760003560e01c80639a2cdc08116100715780639a2cdc0814610154578063c0748a3f14610172578063e5163a5d14610190578063ea46193e146101ae578063eb2417c0146101cc578063ec621988146101ea576100a9565b806339e7357c146100ae5780633d1f5bda146100cc5780635f6b62ad146100fc5780636b46d7a314610118578063775a25e314610136575b600080fd5b6100b6610208565b6040516100c3919061156b565b60405180910390f35b6100e660048036038101906100e191906110dc565b610212565b6040516100f3919061156b565b60405180910390f35b61011660048036038101906101119190611105565b61022a565b005b61012061094f565b60405161012d919061156b565b60405180910390f35b61013e6109a5565b60405161014b919061156b565b60405180910390f35b61015c6109de565b604051610169919061156b565b60405180910390f35b61017a610a34565b6040516101879190611422565b60405180910390f35b610198610c17565b6040516101a5919061156b565b60405180910390f35b6101b6610c6d565b6040516101c3919061156b565b60405180910390f35b6101d4610c77565b6040516101e1919061156b565b60405180910390f35b6101f2610ccd565b6040516101ff919061156b565b60405180910390f35b6000600654905090565b60146020528060005260406000206000915090505481565b3373ffffffffffffffffffffffffffffffffffffffff1631600881905550426104b0601460003373ffffffffffffffffffffffffffffffffffffffff1673ffffffffffffffffffffffffffffffffffffffff16815260200190815260200160002054610296919061169d565b106102d6576040517f08c379a00000000000000000000000000000000000000000000000000000000081526004016102cd9061154b565b60405180910390fd5b42601460003373ffffffffffffffffffffffffffffffffffffffff1673ffffffffffffffffffffffffffffffffffffffff1681526020019081526020016000208190555060006040518060400160405280600481526020017f4e6f6e6500000000000000000000000000000000000000000000000000000000815250905060125460085411156103f757600160046000828254610373919061169d565b925050819055506040518060400160405280600381526020017f426f77000000000000000000000000000000000000000000000000000000000081525090506103f26040518060400160405280601b81526020017f25732068617320626f77656420772f206d6573736167653a20257300000000008152503384610dbc565b61064f565b601154600854111561047d57600160036000828254610416919061169d565b925050819055506040518060400160405280600981526020017f48616e647368616b65000000000000000000000000000000000000000000000081525090506104786040518060600160405280602c815260200161197a602c91393384610dbc565b61064e565b60105460085411156105035760016002600082825461049c919061169d565b925050819055506040518060400160405280600981526020017f486967682046697665000000000000000000000000000000000000000000000081525090506104fe6040518060600160405280602b81526020016118ff602b91393384610dbc565b61064d565b600f546008541115610588576001806000828254610521919061169d565b925050819055506040518060400160405280600981526020017f466973742042756d70000000000000000000000000000000000000000000000081525090506105836040518060600160405280602b815260200161194f602b91393384610dbc565b61064c565b600e54600854111561060d5760016000808282546105a6919061169d565b925050819055506040518060400160405280600481526020017f576176650000000000000000000000000000000000000000000000000000000081525090506106086040518060600160405280602281526020016118dd602291393384610dbc565b61064b565b600160056000828254610620919061169d565b9250508190555061064a6040518060600160405280602481526020016118b9602491393384610dbc565b5b5b5b5b5b601360405180608001604052803373ffffffffffffffffffffffffffffffffffffffff16815260200184815260200142815260200183815250908060018154018082558091505060019003906000526020600020906004020160009091909190915060008201518160000160006101000a81548173ffffffffffffffffffffffffffffffffffffffff021916908373ffffffffffffffffffffffffffffffffffffffff1602179055506020820151816001019080519060200190610714929190610fbc565b5060408201518160020155606082015181600301908051906020019061073b929190610fbc565b5050506064600754424461074f919061169d565b610759919061169d565b61076391906117a3565b6007819055506107aa6040518060400160405280601681526020017f52616e646f6d20232067656e6572617465643a20256400000000000000000000815250600754610e5b565b6007546006819055506019600754116108f9576107fc6040518060400160405280600781526020017f257320776f6e210000000000000000000000000000000000000000000000000081525033610ef7565b6000655af3107a400090504781111561084a576040517f08c379a00000000000000000000000000000000000000000000000000000000081526004016108419061150b565b60405180910390fd5b60003373ffffffffffffffffffffffffffffffffffffffff16826040516108709061140d565b60006040518083038185875af1925050503d80600081146108ad576040519150601f19603f3d011682016040523d82523d6000602084013e6108b2565b606091505b50509050806108f6576040517f08c379a00000000000000000000000000000000000000000000000000000000081526004016108ed9061152b565b60405180910390fd5b50505b3373ffffffffffffffffffffffffffffffffffffffff167fbb906bc4c73d60503a7e53ed25ed4c615fe4138bf9b0723dfa1d34822bb437c742848460405161094393929190611586565b60405180910390a25050565b600080600154111561099d5761099c6040518060400160405280601c81526020017f5765206861766520256420746f74616c20666973742062756d70732100000000815250600154610e5b565b5b600154905090565b60008060055411156109d6576109d560405180606001604052806025815260200161192a60259139600554610e5b565b5b600554905090565b6000806000541115610a2c57610a2b6040518060400160405280601781526020017f5765206861766520256420746f74616c20776176657321000000000000000000815250600054610e5b565b5b600054905090565b60606013805480602002602001604051908101604052809291908181526020016000905b82821015610c0e57838290600052602060002090600402016040518060800160405290816000820160009054906101000a900473ffffffffffffffffffffffffffffffffffffffff1673ffffffffffffffffffffffffffffffffffffffff1673ffffffffffffffffffffffffffffffffffffffff168152602001600182018054610ae190611771565b80601f0160208091040260200160405190810160405280929190818152602001828054610b0d90611771565b8015610b5a5780601f10610b2f57610100808354040283529160200191610b5a565b820191906000526020600020905b815481529060010190602001808311610b3d57829003601f168201915b5050505050815260200160028201548152602001600382018054610b7d90611771565b80601f0160208091040260200160405190810160405280929190818152602001828054610ba990611771565b8015610bf65780601f10610bcb57610100808354040283529160200191610bf6565b820191906000526020600020905b815481529060010190602001808311610bd957829003601f168201915b50505050508152505081526020019060010190610a58565b50505050905090565b6000806002541115610c6557610c646040518060400160405280601c81526020017f5765206861766520256420746f74616c20686967682066697665732100000000815250600254610e5b565b5b600254905090565b6000600854905090565b6000806003541115610cc557610cc46040518060400160405280601d81526020017f5765206861766520256420746f74616c2068616e64207368616b657321000000815250600354610e5b565b5b600354905090565b6000806004541115610d1b57610d1a6040518060400160405280601681526020017f5765206861766520256420746f74616c20426f77732100000000000000000000815250600454610e5b565b5b600454905090565b610db981604051602401610d379190611444565b6040516020818303038152906040527f41304fac000000000000000000000000000000000000000000000000000000007bffffffffffffffffffffffffffffffffffffffffffffffffffffffff19166020820180517bffffffffffffffffffffffffffffffffffffffffffffffffffffffff8381831617835250505050610f93565b50565b610e56838383604051602401610dd493929190611496565b6040516020818303038152906040527fe0e9ad4f000000000000000000000000000000000000000000000000000000007bffffffffffffffffffffffffffffffffffffffffffffffffffffffff19166020820180517bffffffffffffffffffffffffffffffffffffffffffffffffffffffff8381831617835250505050610f93565b505050565b610ef38282604051602401610e719291906114db565b6040516020818303038152906040527f9710a9d0000000000000000000000000000000000000000000000000000000007bffffffffffffffffffffffffffffffffffffffffffffffffffffffff19166020820180517bffffffffffffffffffffffffffffffffffffffffffffffffffffffff8381831617835250505050610f93565b5050565b610f8f8282604051602401610f0d929190611466565b6040516020818303038152906040527f319af333000000000000000000000000000000000000000000000000000000007bffffffffffffffffffffffffffffffffffffffffffffffffffffffff19166020820180517bffffffffffffffffffffffffffffffffffffffffffffffffffffffff8381831617835250505050610f93565b5050565b60008151905060006a636f6e736f6c652e6c6f679050602083016000808483855afa5050505050565b828054610fc890611771565b90600052602060002090601f016020900481019282610fea5760008555611031565b82601f1061100357805160ff1916838001178555611031565b82800160010185558215611031579182015b82811115611030578251825591602001919060010190611015565b5b50905061103e9190611042565b5090565b5b8082111561105b576000816000905550600101611043565b5090565b600061107261106d846115fc565b6115cb565b90508281526020810184848401111561108a57600080fd5b61109584828561172f565b509392505050565b6000813590506110ac816118a1565b92915050565b600082601f8301126110c357600080fd5b81356110d384826020860161105f565b91505092915050565b6000602082840312156110ee57600080fd5b60006110fc8482850161109d565b91505092915050565b60006020828403121561111757600080fd5b600082013567ffffffffffffffff81111561113157600080fd5b61113d848285016110b2565b91505092915050565b60006111528383611385565b905092915050565b611163816116f3565b82525050565b611172816116f3565b82525050565b60006111838261163c565b61118d818561165f565b93508360208202850161119f8561162c565b8060005b858110156111db57848403895281516111bc8582611146565b94506111c783611652565b925060208a019950506001810190506111a3565b50829750879550505050505092915050565b60006111f882611647565b611202818561167b565b935061121281856020860161173e565b61121b81611890565b840191505092915050565b600061123182611647565b61123b818561168c565b935061124b81856020860161173e565b61125481611890565b840191505092915050565b600061126c60348361168c565b91507f547279696e6720746f207769746864726177206d6f7265206d6f6e657920746860008301527f616e2074686520636f6e7472616374206861732e0000000000000000000000006020830152604082019050919050565b60006112d260278361168c565b91507f4661696c656420746f207769746864726177206d6f6e65792066726f6d20636f60008301527f6e74726163742e000000000000000000000000000000000000000000000000006020830152604082019050919050565b6000611338600f8361168c565b91507f57616974203230206d696e7574657300000000000000000000000000000000006000830152602082019050919050565b6000611378600083611670565b9150600082019050919050565b600060808301600083015161139d600086018261115a565b50602083015184820360208601526113b582826111ed565b91505060408301516113ca60408601826113ef565b50606083015184820360608601526113e282826111ed565b9150508091505092915050565b6113f881611725565b82525050565b61140781611725565b82525050565b60006114188261136b565b9150819050919050565b6000602082019050818103600083015261143c8184611178565b905092915050565b6000602082019050818103600083015261145e8184611226565b905092915050565b600060408201905081810360008301526114808185611226565b905061148f6020830184611169565b9392505050565b600060608201905081810360008301526114b08186611226565b90506114bf6020830185611169565b81810360408301526114d18184611226565b9050949350505050565b600060408201905081810360008301526114f58185611226565b905061150460208301846113fe565b9392505050565b600060208201905081810360008301526115248161125f565b9050919050565b60006020820190508181036000830152611544816112c5565b9050919050565b600060208201905081810360008301526115648161132b565b9050919050565b600060208201905061158060008301846113fe565b92915050565b600060608201905061159b60008301866113fe565b81810360208301526115ad8185611226565b905081810360408301526115c18184611226565b9050949350505050565b6000604051905081810181811067ffffffffffffffff821117156115f2576115f1611861565b5b8060405250919050565b600067ffffffffffffffff82111561161757611616611861565b5b601f19601f8301169050602081019050919050565b6000819050602082019050919050565b600081519050919050565b600081519050919050565b6000602082019050919050565b600082825260208201905092915050565b600081905092915050565b600082825260208201905092915050565b600082825260208201905092915050565b60006116a882611725565b91506116b383611725565b9250827fffffffffffffffffffffffffffffffffffffffffffffffffffffffffffffffff038211156116e8576116e76117d4565b5b828201905092915050565b60006116fe82611705565b9050919050565b600073ffffffffffffffffffffffffffffffffffffffff82169050919050565b6000819050919050565b82818337600083830152505050565b60005b8381101561175c578082015181840152602081019050611741565b8381111561176b576000848401525b50505050565b6000600282049050600182168061178957607f821691505b6020821081141561179d5761179c611832565b5b50919050565b60006117ae82611725565b91506117b983611725565b9250826117c9576117c8611803565b5b828206905092915050565b7f4e487b7100000000000000000000000000000000000000000000000000000000600052601160045260246000fd5b7f4e487b7100000000000000000000000000000000000000000000000000000000600052601260045260246000fd5b7f4e487b7100000000000000000000000000000000000000000000000000000000600052602260045260246000fd5b7f4e487b7100000000000000000000000000000000000000000000000000000000600052604160045260246000fd5b6000601f19601f8301169050919050565b6118aa816116f3565b81146118b557600080fd5b5056fe257320686173206e6f20696e746572616374696f6e20772f206d6573736167653a20257325732068617320776176656420617420796f7520772f206d6573736167653a20257325732068617320676976656e20796f7520612068696768206669766520772f206d6573736167653a2025735765206861766520256420746f74616c2070656f706c652077686f206e656564206574682125732068617320676976656e20796f75206120666973742062756d7020772f206d6573736167653a20257325732068617320676976656e20796f7520612068616e64207368616b6520772f206d6573736167653a202573a26469706673582212203f38caa223d411948f71d752002113b884811e35d7ac0d678bcfa36d7ab826c864736f6c634300080000334865792c2069742773206a75737420796f7572206176657261676520736d61727420636f6e7472616374206865726520616e6420646570656e64696e67206f6e20796f75722077616c6c657473206574682c2077652077696c6c20696e74657261637420646966666572656e746c792e2e2e",
  "linkReferences": {},
  "deployedLinkReferences": {}
}